{
  "contractName": "Gamble",
  "abi": [
    {
      "constant": true,
      "inputs": [
        {
          "name": "",
          "type": "address"
        }
      ],
      "name": "balances",
      "outputs": [
        {
          "name": "",
          "type": "uint256"
        }
      ],
      "payable": false,
      "stateMutability": "view",
      "type": "function"
    },
    {
      "constant": true,
      "inputs": [],
      "name": "myLighthouse",
      "outputs": [
        {
          "name": "",
          "type": "address"
        }
      ],
      "payable": false,
      "stateMutability": "view",
      "type": "function"
    },
    {
      "constant": true,
      "inputs": [],
      "name": "numAccounts",
      "outputs": [
        {
          "name": "",
          "type": "uint256"
        }
      ],
      "payable": false,
      "stateMutability": "view",
      "type": "function"
    },
    {
      "constant": true,
      "inputs": [
        {
          "name": "",
          "type": "address"
        }
      ],
      "name": "toBet",
      "outputs": [
        {
          "name": "",
          "type": "uint256"
        }
      ],
      "payable": false,
      "stateMutability": "view",
      "type": "function"
    },
    {
      "constant": true,
      "inputs": [
        {
          "name": "",
          "type": "uint256"
        }
      ],
      "name": "accounts",
      "outputs": [
        {
          "name": "",
          "type": "address"
        }
      ],
      "payable": false,
      "stateMutability": "view",
      "type": "function"
    },
    {
      "constant": true,
      "inputs": [
        {
          "name": "",
          "type": "address"
        }
      ],
      "name": "chosenNumber",
      "outputs": [
        {
          "name": "",
          "type": "uint256"
        }
      ],
      "payable": false,
      "stateMutability": "view",
      "type": "function"
    },
    {
      "inputs": [
        {
          "name": "_myLighthouse",
          "type": "address"
        }
      ],
      "payable": false,
      "stateMutability": "nonpayable",
      "type": "constructor"
    },
    {
      "constant": false,
      "inputs": [
        {
          "name": "msgSender",
          "type": "address"
        }
      ],
      "name": "deposit",
      "outputs": [],
      "payable": true,
      "stateMutability": "payable",
      "type": "function"
    },
    {
      "constant": false,
      "inputs": [
        {
          "name": "msgSender",
          "type": "address"
        }
      ],
      "name": "withdraw",
      "outputs": [],
      "payable": false,
      "stateMutability": "nonpayable",
      "type": "function"
    },
    {
      "constant": true,
      "inputs": [],
      "name": "checkAccountLength",
      "outputs": [
        {
          "name": "",
          "type": "uint256"
        }
      ],
      "payable": false,
      "stateMutability": "view",
      "type": "function"
    },
    {
      "constant": true,
      "inputs": [],
      "name": "checkNumAccounts",
      "outputs": [
        {
          "name": "",
          "type": "uint256"
        }
      ],
      "payable": false,
      "stateMutability": "view",
      "type": "function"
    },
    {
      "constant": true,
      "inputs": [
        {
          "name": "index",
          "type": "uint256"
        }
      ],
      "name": "checkAccounts",
      "outputs": [
        {
          "name": "",
          "type": "address"
        }
      ],
      "payable": false,
      "stateMutability": "view",
      "type": "function"
    },
    {
      "constant": true,
      "inputs": [
        {
          "name": "msgSender",
          "type": "address"
        }
      ],
      "name": "checkBalance",
      "outputs": [
        {
          "name": "",
          "type": "uint256"
        }
      ],
      "payable": false,
      "stateMutability": "view",
      "type": "function"
    },
    {
      "constant": true,
      "inputs": [
        {
          "name": "msgSender",
          "type": "address"
        }
      ],
      "name": "checkBet",
      "outputs": [
        {
          "name": "",
          "type": "uint256"
        }
      ],
      "payable": false,
      "stateMutability": "view",
      "type": "function"
    },
    {
      "constant": true,
      "inputs": [
        {
          "name": "msgSender",
          "type": "address"
        }
      ],
      "name": "checkNumber",
      "outputs": [
        {
          "name": "",
          "type": "uint256"
        }
      ],
      "payable": false,
      "stateMutability": "view",
      "type": "function"
    },
    {
      "constant": false,
      "inputs": [
        {
          "name": "msgSender",
          "type": "address"
        },
        {
          "name": "money",
          "type": "uint256"
        },
        {
          "name": "number",
          "type": "uint256"
        }
      ],
      "name": "gamble",
      "outputs": [],
      "payable": false,
      "stateMutability": "nonpayable",
      "type": "function"
    },
    {
      "constant": false,
      "inputs": [],
      "name": "diceRoll",
      "outputs": [],
      "payable": false,
      "stateMutability": "nonpayable",
      "type": "function"
    }
  ],
  "bytecode": "0x6080604052600060155534801561001557600080fd5b5060405160208061106b8339810180604052602081101561003557600080fd5b8101908080519060200190929190505050806000806101000a81548173ffffffffffffffffffffffffffffffffffffffff021916908373ffffffffffffffffffffffffffffffffffffffff16021790555050610fd5806100966000396000f3fe6080604052600436106100e6576000357c0100000000000000000000000000000000000000000000000000000000900463ffffffff1680630c5de051146100eb57806312b905571461015057806327e235e3146101cb57806351cff8d914610230578063524704ac146102815780635f515226146102d857806370bddc801461033d57806388438c0c146103545780638ce25a93146103b9578063b9e108c4146103e4578063f1f7643814610449578063f2a40db8146104ae578063f340fa0114610529578063f41a804f1461056d578063f8c4b9d614610598578063fd793cd8146105fd575b600080fd5b3480156100f757600080fd5b5061013a6004803603602081101561010e57600080fd5b81019080803573ffffffffffffffffffffffffffffffffffffffff169060200190929190505050610628565b6040518082815260200191505060405180910390f35b34801561015c57600080fd5b506101896004803603602081101561017357600080fd5b8101908080359060200190929190505050610671565b604051808273ffffffffffffffffffffffffffffffffffffffff1673ffffffffffffffffffffffffffffffffffffffff16815260200191505060405180910390f35b3480156101d757600080fd5b5061021a600480360360208110156101ee57600080fd5b81019080803573ffffffffffffffffffffffffffffffffffffffff169060200190929190505050610749565b6040518082815260200191505060405180910390f35b34801561023c57600080fd5b5061027f6004803603602081101561025357600080fd5b81019080803573ffffffffffffffffffffffffffffffffffffffff169060200190929190505050610761565b005b34801561028d57600080fd5b506102966108de565b604051808273ffffffffffffffffffffffffffffffffffffffff1673ffffffffffffffffffffffffffffffffffffffff16815260200191505060405180910390f35b3480156102e457600080fd5b50610327600480360360208110156102fb57600080fd5b81019080803573ffffffffffffffffffffffffffffffffffffffff169060200190929190505050610903565b6040518082815260200191505060405180910390f35b34801561034957600080fd5b5061035261094c565b005b34801561036057600080fd5b506103b76004803603606081101561037757600080fd5b81019080803573ffffffffffffffffffffffffffffffffffffffff1690602001909291908035906020019092919080359060200190929190505050610cad565b005b3480156103c557600080fd5b506103ce610d90565b6040518082815260200191505060405180910390f35b3480156103f057600080fd5b506104336004803603602081101561040757600080fd5b81019080803573ffffffffffffffffffffffffffffffffffffffff169060200190929190505050610d96565b6040518082815260200191505060405180910390f35b34801561045557600080fd5b506104986004803603602081101561046c57600080fd5b81019080803573ffffffffffffffffffffffffffffffffffffffff169060200190929190505050610dae565b6040518082815260200191505060405180910390f35b3480156104ba57600080fd5b506104e7600480360360208110156104d157600080fd5b8101908080359060200190929190505050610df7565b604051808273ffffffffffffffffffffffffffffffffffffffff1673ffffffffffffffffffffffffffffffffffffffff16815260200191505060405180910390f35b61056b6004803603602081101561053f57600080fd5b81019080803573ffffffffffffffffffffffffffffffffffffffff169060200190929190505050610e2c565b005b34801561057957600080fd5b50610582610f7e565b6040518082815260200191505060405180910390f35b3480156105a457600080fd5b506105e7600480360360208110156105bb57600080fd5b81019080803573ffffffffffffffffffffffffffffffffffffffff169060200190929190505050610f87565b6040518082815260200191505060405180910390f35b34801561060957600080fd5b50610612610f9f565b6040518082815260200191505060405180910390f35b6000601760008373ffffffffffffffffffffffffffffffffffffffff1673ffffffffffffffffffffffffffffffffffffffff168152602001908152602001600020549050919050565b6000601482101515610711576040517f08c379a00000000000000000000000000000000000000000000000000000000081526004018080602001828103825260348152602001807f4e6f206d6f7265207468616e203230206163636f756e74732063616e2062652081526020017f7265676973746572656420617420612074696d6500000000000000000000000081525060400191505060405180910390fd5b60018260148110151561072057fe5b0160009054906101000a900473ffffffffffffffffffffffffffffffffffffffff169050919050565b60166020528060005260406000206000915090505481565b6000601660008373ffffffffffffffffffffffffffffffffffffffff1673ffffffffffffffffffffffffffffffffffffffff1681526020019081526020016000205490506000601660008473ffffffffffffffffffffffffffffffffffffffff1673ffffffffffffffffffffffffffffffffffffffff16815260200190815260200160002081905550600060608373ffffffffffffffffffffffffffffffffffffffff1683614e2090604051806000019050600060405180830381858888f193505050503d8060008114610851576040519150601f19603f3d011682016040523d82523d6000602084013e610856565b606091505b508092508193505050600191508115156108d8576040517f08c379a000000000000000000000000000000000000000000000000000000000815260040180806020018281038252600f8152602001807f5472616e73666572206661696c6564000000000000000000000000000000000081525060200191505060405180910390fd5b50505050565b6000809054906101000a900473ffffffffffffffffffffffffffffffffffffffff1681565b6000601660008373ffffffffffffffffffffffffffffffffffffffff1673ffffffffffffffffffffffffffffffffffffffff168152602001908152602001600020549050919050565b6000806000809054906101000a900473ffffffffffffffffffffffffffffffffffffffff1673ffffffffffffffffffffffffffffffffffffffff1663420b81f66040518163ffffffff167c0100000000000000000000000000000000000000000000000000000000028152600401604080518083038186803b1580156109d157600080fd5b505afa1580156109e5573d6000803e3d6000fd5b505050506040513d60408110156109fb57600080fd5b810190808051906020019092919080519060200190929190505050816fffffffffffffffffffffffffffffffff169150809250819350505060008090505b601554811015610ca857600060176000600184601481101515610a5857fe5b0160009054906101000a900473ffffffffffffffffffffffffffffffffffffffff1673ffffffffffffffffffffffffffffffffffffffff1673ffffffffffffffffffffffffffffffffffffffff1681526020019081526020016000205414158015610b3157508260186000600184601481101515610ad257fe5b0160009054906101000a900473ffffffffffffffffffffffffffffffffffffffff1673ffffffffffffffffffffffffffffffffffffffff1673ffffffffffffffffffffffffffffffffffffffff16815260200190815260200160002054145b15610c2657600660176000600184601481101515610b4b57fe5b0160009054906101000a900473ffffffffffffffffffffffffffffffffffffffff1673ffffffffffffffffffffffffffffffffffffffff1673ffffffffffffffffffffffffffffffffffffffff168152602001908152602001600020540260166000600184601481101515610bbc57fe5b0160009054906101000a900473ffffffffffffffffffffffffffffffffffffffff1673ffffffffffffffffffffffffffffffffffffffff1673ffffffffffffffffffffffffffffffffffffffff168152602001908152602001600020600082825401925050819055505b600060176000600184601481101515610c3b57fe5b0160009054906101000a900473ffffffffffffffffffffffffffffffffffffffff1673ffffffffffffffffffffffffffffffffffffffff1673ffffffffffffffffffffffffffffffffffffffff168152602001908152602001600020819055508080600101915050610a39565b505050565b81601660008573ffffffffffffffffffffffffffffffffffffffff1673ffffffffffffffffffffffffffffffffffffffff1681526020019081526020016000206000828254039250508190555081601760008573ffffffffffffffffffffffffffffffffffffffff1673ffffffffffffffffffffffffffffffffffffffff1681526020019081526020016000206000828254019250508190555080601860008573ffffffffffffffffffffffffffffffffffffffff1673ffffffffffffffffffffffffffffffffffffffff16815260200190815260200160002081905550505050565b60155481565b60176020528060005260406000206000915090505481565b6000601860008373ffffffffffffffffffffffffffffffffffffffff1673ffffffffffffffffffffffffffffffffffffffff168152602001908152602001600020549050919050565b600181601481101515610e0657fe5b016000915054906101000a900473ffffffffffffffffffffffffffffffffffffffff1681565b600080905060008090505b601554811015610ebb578273ffffffffffffffffffffffffffffffffffffffff16600182601481101515610e6757fe5b0160009054906101000a900473ffffffffffffffffffffffffffffffffffffffff1673ffffffffffffffffffffffffffffffffffffffff161415610eae5760019150610ebb565b8080600101915050610e37565b50600015158115151415610f2d57816001601554601481101515610edb57fe5b0160006101000a81548173ffffffffffffffffffffffffffffffffffffffff021916908373ffffffffffffffffffffffffffffffffffffffff1602179055506015600081548092919060010191905055505b34601660008473ffffffffffffffffffffffffffffffffffffffff1673ffffffffffffffffffffffffffffffffffffffff168152602001908152602001600020600082825401925050819055505050565b60006014905090565b60186020528060005260406000206000915090505481565b600060155490509056fea165627a7a723058205a9601dc60347c92ea9ba0bd05d4e1c9a5a623e29d5984c1ef5b2359e88304f40029",
  "source": "pragma solidity ^0.5.0;\r\n\r\nimport \"../contracts/Ilighthouse.sol\";\r\n\r\ncontract Gamble {\r\n\r\n    ILighthouse  public myLighthouse;        // Lighthouse to obtain a random number\r\n\r\n    address[20] public accounts;             // Array of users registered\r\n    uint public numAccounts = 0;             // Should be <= 19, this holds number of registered users\r\n\r\n    mapping(address => uint) public balances;     // Stores users deposited ether in a wallet\r\n    mapping(address => uint) public toBet;        // Holds ether users have decided to gamble on an upcoming dice roll\r\n    mapping(address => uint) public chosenNumber; // Holds the users chosen number to bet on in an upcoming dice roll\r\n\r\n    constructor(ILighthouse _myLighthouse) public {\r\n        myLighthouse = _myLighthouse;\r\n    }\r\n\r\n// Pass in sender address manually because truffle proxy contracts interfer with msg.sender\r\n    function deposit(address msgSender) external payable {\r\n\r\n      bool exists = false;\r\n      for(uint i = 0; i < numAccounts; i++){\r\n        if( accounts[i] == msgSender){\r\n          exists = true;\r\n          break;\r\n        }\r\n      }\r\n\r\n      if(exists == false){\r\n        accounts[numAccounts] = msgSender;\r\n        numAccounts++;\r\n      }\r\n\r\n      balances[msgSender] += msg.value;\r\n    }\r\n\r\n// Allows users to withdraw all their ether\r\n    function withdraw(address payable msgSender) public {\r\n      uint amount = balances[msgSender];\r\n      balances[msgSender] = 0;\r\n\r\n      bool ok;\r\n      bytes memory mem;\r\n      (ok, mem) = msgSender.call.value(amount).gas(20000)(\"\");    // fallback function logs withdraw in a storage write, requires 20000 gas\r\n      require(ok = true, \"Transfer failed\");\r\n    }\r\n\r\n\r\n// Functions to display the internal state\r\n    function checkAccountLength() public view returns(uint) {\r\n      return accounts.length;\r\n    }\r\n\r\n    function checkNumAccounts() public view returns(uint) {\r\n      return numAccounts;\r\n    }\r\n\r\n    function checkAccounts(uint index) public view returns(address) {\r\n      require(index < 20, \"No more than 20 accounts can be registered at a time\");\r\n      return accounts[index];\r\n    }\r\n\r\n    function checkBalance(address msgSender) public view returns(uint) {\r\n      return balances[msgSender];\r\n    }\r\n\r\n    function checkBet(address msgSender) public view returns(uint) {\r\n      return toBet[msgSender];\r\n    }\r\n\r\n    function checkNumber(address msgSender) public view returns(uint) {\r\n      return chosenNumber[msgSender];\r\n    }\r\n\r\n// User places a bet on a number they think will win the dice roll\r\n    function gamble(address msgSender, uint money, uint number) public {\r\n      balances[msgSender] -= money;\r\n      toBet[msgSender] += money;\r\n      chosenNumber[msgSender] = number;\r\n    }\r\n\r\n// Rolls the dice for all players who bet on this round, giving a 6x return if they win\r\n    function diceRoll() public {\r\n      uint winningNumber;\r\n      bool ok;\r\n      (winningNumber,ok) = myLighthouse.peekData(); // obtain random number from Rhombus Lighthouse\r\n\r\n      for(uint i = 0; i < numAccounts; i++){\r\n        if( toBet[accounts[i]] != 0 && chosenNumber[accounts[i]] == winningNumber){\r\n          balances[accounts[i]] += toBet[accounts[i]] * 6;\r\n        }\r\n        toBet[accounts[i]] = 0;\r\n      }\r\n    }\r\n\r\n}\r\n",
  "sourcePath": "/home/jacky/Dropbox/Rhombus/BettingGame/contracts/Gamble.sol",
  "compiler": {
    "name": "solc",
    "version": "0.5.0+commit.1d4f565a.Emscripten.clang"
  },
  "schemaVersion": "3.0.1",
  "updatedAt": "2019-02-01T18:43:56.117Z",
  "devdoc": {
    "methods": {}
  },
  "userdoc": {
    "methods": {}
  }
}